{
  "contractName": "StarNotary",
  "abi": [
    {
      "constant": true,
      "inputs": [
        {
          "name": "interfaceId",
          "type": "bytes4"
        }
      ],
      "name": "supportsInterface",
      "outputs": [
        {
          "name": "",
          "type": "bool"
        }
      ],
      "payable": false,
      "stateMutability": "view",
      "type": "function",
      "signature": "0x01ffc9a7"
    },
    {
      "constant": true,
      "inputs": [
        {
          "name": "",
          "type": "uint256"
        }
      ],
      "name": "starsForSale",
      "outputs": [
        {
          "name": "",
          "type": "uint256"
        }
      ],
      "payable": false,
      "stateMutability": "view",
      "type": "function",
      "signature": "0x0564b130"
    },
    {
      "constant": true,
      "inputs": [],
      "name": "name",
      "outputs": [
        {
          "name": "",
          "type": "string"
        }
      ],
      "payable": false,
      "stateMutability": "view",
      "type": "function",
      "signature": "0x06fdde03"
    },
    {
      "constant": true,
      "inputs": [
        {
          "name": "tokenId",
          "type": "uint256"
        }
      ],
      "name": "getApproved",
      "outputs": [
        {
          "name": "",
          "type": "address"
        }
      ],
      "payable": false,
      "stateMutability": "view",
      "type": "function",
      "signature": "0x081812fc"
    },
    {
      "constant": false,
      "inputs": [
        {
          "name": "to",
          "type": "address"
        },
        {
          "name": "tokenId",
          "type": "uint256"
        }
      ],
      "name": "approve",
      "outputs": [],
      "payable": false,
      "stateMutability": "nonpayable",
      "type": "function",
      "signature": "0x095ea7b3"
    },
    {
      "constant": true,
      "inputs": [
        {
          "name": "",
          "type": "uint256"
        }
      ],
      "name": "tokenIdToStarInfo",
      "outputs": [
        {
          "name": "name",
          "type": "string"
        },
        {
          "name": "symbol",
          "type": "string"
        }
      ],
      "payable": false,
      "stateMutability": "view",
      "type": "function",
      "signature": "0x1967fd98"
    },
    {
      "constant": false,
      "inputs": [
        {
          "name": "from",
          "type": "address"
        },
        {
          "name": "to",
          "type": "address"
        },
        {
          "name": "tokenId",
          "type": "uint256"
        }
      ],
      "name": "transferFrom",
      "outputs": [],
      "payable": false,
      "stateMutability": "nonpayable",
      "type": "function",
      "signature": "0x23b872dd"
    },
    {
      "constant": false,
      "inputs": [
        {
          "name": "from",
          "type": "address"
        },
        {
          "name": "to",
          "type": "address"
        },
        {
          "name": "tokenId",
          "type": "uint256"
        }
      ],
      "name": "safeTransferFrom",
      "outputs": [],
      "payable": false,
      "stateMutability": "nonpayable",
      "type": "function",
      "signature": "0x42842e0e"
    },
    {
      "constant": true,
      "inputs": [
        {
          "name": "tokenId",
          "type": "uint256"
        }
      ],
      "name": "ownerOf",
      "outputs": [
        {
          "name": "",
          "type": "address"
        }
      ],
      "payable": false,
      "stateMutability": "view",
      "type": "function",
      "signature": "0x6352211e"
    },
    {
      "constant": true,
      "inputs": [
        {
          "name": "owner",
          "type": "address"
        }
      ],
      "name": "balanceOf",
      "outputs": [
        {
          "name": "",
          "type": "uint256"
        }
      ],
      "payable": false,
      "stateMutability": "view",
      "type": "function",
      "signature": "0x70a08231"
    },
    {
      "constant": true,
      "inputs": [],
      "name": "symbol",
      "outputs": [
        {
          "name": "",
          "type": "string"
        }
      ],
      "payable": false,
      "stateMutability": "view",
      "type": "function",
      "signature": "0x95d89b41"
    },
    {
      "constant": false,
      "inputs": [
        {
          "name": "to",
          "type": "address"
        },
        {
          "name": "approved",
          "type": "bool"
        }
      ],
      "name": "setApprovalForAll",
      "outputs": [],
      "payable": false,
      "stateMutability": "nonpayable",
      "type": "function",
      "signature": "0xa22cb465"
    },
    {
      "constant": false,
      "inputs": [
        {
          "name": "from",
          "type": "address"
        },
        {
          "name": "to",
          "type": "address"
        },
        {
          "name": "tokenId",
          "type": "uint256"
        },
        {
          "name": "_data",
          "type": "bytes"
        }
      ],
      "name": "safeTransferFrom",
      "outputs": [],
      "payable": false,
      "stateMutability": "nonpayable",
      "type": "function",
      "signature": "0xb88d4fde"
    },
    {
      "constant": true,
      "inputs": [
        {
          "name": "owner",
          "type": "address"
        },
        {
          "name": "operator",
          "type": "address"
        }
      ],
      "name": "isApprovedForAll",
      "outputs": [
        {
          "name": "",
          "type": "bool"
        }
      ],
      "payable": false,
      "stateMutability": "view",
      "type": "function",
      "signature": "0xe985e9c5"
    },
    {
      "anonymous": false,
      "inputs": [
        {
          "indexed": true,
          "name": "from",
          "type": "address"
        },
        {
          "indexed": true,
          "name": "to",
          "type": "address"
        },
        {
          "indexed": true,
          "name": "tokenId",
          "type": "uint256"
        }
      ],
      "name": "Transfer",
      "type": "event",
      "signature": "0xddf252ad1be2c89b69c2b068fc378daa952ba7f163c4a11628f55a4df523b3ef"
    },
    {
      "anonymous": false,
      "inputs": [
        {
          "indexed": true,
          "name": "owner",
          "type": "address"
        },
        {
          "indexed": true,
          "name": "approved",
          "type": "address"
        },
        {
          "indexed": true,
          "name": "tokenId",
          "type": "uint256"
        }
      ],
      "name": "Approval",
      "type": "event",
      "signature": "0x8c5be1e5ebec7d5bd14f71427d1e84f3dd0314c0f7b2291e5b200ac8c7c3b925"
    },
    {
      "anonymous": false,
      "inputs": [
        {
          "indexed": true,
          "name": "owner",
          "type": "address"
        },
        {
          "indexed": true,
          "name": "operator",
          "type": "address"
        },
        {
          "indexed": false,
          "name": "approved",
          "type": "bool"
        }
      ],
      "name": "ApprovalForAll",
      "type": "event",
      "signature": "0x17307eab39ab6107e8899845ad3d59bd9653f200f220920489ca2b5937696c31"
    },
    {
      "constant": false,
      "inputs": [
        {
          "name": "_name",
          "type": "string"
        },
        {
          "name": "_symbol",
          "type": "string"
        },
        {
          "name": "_tokenId",
          "type": "uint256"
        }
      ],
      "name": "createStar",
      "outputs": [],
      "payable": false,
      "stateMutability": "nonpayable",
      "type": "function",
      "signature": "0x438e5160"
    },
    {
      "constant": false,
      "inputs": [
        {
          "name": "_tokenId",
          "type": "uint256"
        },
        {
          "name": "_price",
          "type": "uint256"
        }
      ],
      "name": "putStarUpForSale",
      "outputs": [],
      "payable": false,
      "stateMutability": "nonpayable",
      "type": "function",
      "signature": "0x316a4361"
    },
    {
      "constant": false,
      "inputs": [
        {
          "name": "_tokenId",
          "type": "uint256"
        }
      ],
      "name": "buyStar",
      "outputs": [],
      "payable": true,
      "stateMutability": "payable",
      "type": "function",
      "signature": "0x2f1c34ef"
    },
    {
      "constant": true,
      "inputs": [
        {
          "name": "_tokenId",
          "type": "uint256"
        }
      ],
      "name": "lookUptokenIdToStarInfo",
      "outputs": [
        {
          "name": "",
          "type": "string"
        }
      ],
      "payable": false,
      "stateMutability": "view",
      "type": "function",
      "signature": "0xd7830ccb"
    },
    {
      "constant": false,
      "inputs": [
        {
          "name": "_tokenId1",
          "type": "uint256"
        },
        {
          "name": "_tokenId2",
          "type": "uint256"
        }
      ],
      "name": "exchangeStars",
      "outputs": [],
      "payable": false,
      "stateMutability": "nonpayable",
      "type": "function",
      "signature": "0x15e0afa5"
    },
    {
      "constant": false,
      "inputs": [
        {
          "name": "_to1",
          "type": "address"
        },
        {
          "name": "_tokenId",
          "type": "uint256"
        }
      ],
      "name": "transferStar",
      "outputs": [],
      "payable": false,
      "stateMutability": "nonpayable",
      "type": "function",
      "signature": "0xe7152a5c"
    }
  ],
  "bytecode": "0x608060405261003f6301ffc9a77c01000000000000000000000000000000000000000000000000000000000261007f640100000000026401000000009004565b61007a6380ac58cd7c01000000000000000000000000000000000000000000000000000000000261007f640100000000026401000000009004565b61013c565b63ffffffff7c010000000000000000000000000000000000000000000000000000000002817bffffffffffffffffffffffffffffffffffffffffffffffffffffffff1916141515156100d057600080fd5b6001600080837bffffffffffffffffffffffffffffffffffffffffffffffffffffffff19167bffffffffffffffffffffffffffffffffffffffffffffffffffffffff1916815260200190815260200160002060006101000a81548160ff02191690831515021790555050565b612315806200014c6000396000f3fe608060405260043610610112576000357c0100000000000000000000000000000000000000000000000000000000900463ffffffff16806301ffc9a7146101175780630564b1301461018957806306fdde03146101d8578063081812fc14610268578063095ea7b3146102e357806315e0afa51461033e5780631967fd981461038357806323b872dd146104a35780632f1c34ef1461051e578063316a43611461054c57806342842e0e14610591578063438e51601461060c5780636352211e1461077557806370a08231146107f057806395d89b4114610855578063a22cb465146108e5578063b88d4fde14610942578063d7830ccb14610a54578063e7152a5c14610b08578063e985e9c514610b63575b600080fd5b34801561012357600080fd5b5061016f6004803603602081101561013a57600080fd5b8101908080357bffffffffffffffffffffffffffffffffffffffffffffffffffffffff19169060200190929190505050610bec565b604051808215151515815260200191505060405180910390f35b34801561019557600080fd5b506101c2600480360360208110156101ac57600080fd5b8101908080359060200190929190505050610c53565b6040518082815260200191505060405180910390f35b3480156101e457600080fd5b506101ed610c6b565b6040518080602001828103825283818151815260200191508051906020019080838360005b8381101561022d578082015181840152602081019050610212565b50505050905090810190601f16801561025a5780820380516001836020036101000a031916815260200191505b509250505060405180910390f35b34801561027457600080fd5b506102a16004803603602081101561028b57600080fd5b8101908080359060200190929190505050610ca4565b604051808273ffffffffffffffffffffffffffffffffffffffff1673ffffffffffffffffffffffffffffffffffffffff16815260200191505060405180910390f35b3480156102ef57600080fd5b5061033c6004803603604081101561030657600080fd5b81019080803573ffffffffffffffffffffffffffffffffffffffff16906020019092919080359060200190929190505050610cf5565b005b34801561034a57600080fd5b506103816004803603604081101561036157600080fd5b810190808035906020019092919080359060200190929190505050610e3a565b005b34801561038f57600080fd5b506103bc600480360360208110156103a657600080fd5b8101908080359060200190929190505050610f6f565b604051808060200180602001838103835285818151815260200191508051906020019080838360005b838110156104005780820151818401526020810190506103e5565b50505050905090810190601f16801561042d5780820380516001836020036101000a031916815260200191505b50838103825284818151815260200191508051906020019080838360005b8381101561046657808201518184015260208101905061044b565b50505050905090810190601f1680156104935780820380516001836020036101000a031916815260200191505b5094505050505060405180910390f35b3480156104af57600080fd5b5061051c600480360360608110156104c657600080fd5b81019080803573ffffffffffffffffffffffffffffffffffffffff169060200190929190803573ffffffffffffffffffffffffffffffffffffffff169060200190929190803590602001909291905050506110c3565b005b61054a6004803603602081101561053457600080fd5b81019080803590602001909291905050506110e8565b005b34801561055857600080fd5b5061058f6004803603604081101561056f57600080fd5b8101908080359060200190929190803590602001909291905050506112c6565b005b34801561059d57600080fd5b5061060a600480360360608110156105b457600080fd5b81019080803573ffffffffffffffffffffffffffffffffffffffff169060200190929190803573ffffffffffffffffffffffffffffffffffffffff169060200190929190803590602001909291905050506113b3565b005b34801561061857600080fd5b506107736004803603606081101561062f57600080fd5b810190808035906020019064010000000081111561064c57600080fd5b82018360208201111561065e57600080fd5b8035906020019184600183028401116401000000008311171561068057600080fd5b91908080601f016020809104026020016040519081016040528093929190818152602001838380828437600081840152601f19601f820116905080830192505050505050509192919290803590602001906401000000008111156106e357600080fd5b8201836020820111156106f557600080fd5b8035906020019184600183028401116401000000008311171561071757600080fd5b91908080601f016020809104026020016040519081016040528093929190818152602001838380828437600081840152601f19601f820116905080830192505050505050509192919290803590602001909291905050506113d4565b005b34801561078157600080fd5b506107ae6004803603602081101561079857600080fd5b8101908080359060200190929190505050611454565b604051808273ffffffffffffffffffffffffffffffffffffffff1673ffffffffffffffffffffffffffffffffffffffff16815260200191505060405180910390f35b3480156107fc57600080fd5b5061083f6004803603602081101561081357600080fd5b81019080803573ffffffffffffffffffffffffffffffffffffffff1690602001909291905050506114d2565b6040518082815260200191505060405180910390f35b34801561086157600080fd5b5061086a611556565b6040518080602001828103825283818151815260200191508051906020019080838360005b838110156108aa57808201518184015260208101905061088f565b50505050905090810190601f1680156108d75780820380516001836020036101000a031916815260200191505b509250505060405180910390f35b3480156108f157600080fd5b506109406004803603604081101561090857600080fd5b81019080803573ffffffffffffffffffffffffffffffffffffffff16906020019092919080351515906020019092919050505061158f565b005b34801561094e57600080fd5b50610a526004803603608081101561096557600080fd5b81019080803573ffffffffffffffffffffffffffffffffffffffff169060200190929190803573ffffffffffffffffffffffffffffffffffffffff16906020019092919080359060200190929190803590602001906401000000008111156109cc57600080fd5b8201836020820111156109de57600080fd5b80359060200191846001830284011164010000000083111715610a0057600080fd5b91908080601f016020809104026020016040519081016040528093929190818152602001838380828437600081840152601f19601f8201169050808301925050505050505091929192905050506116cb565b005b348015610a6057600080fd5b50610a8d60048036036020811015610a7757600080fd5b81019080803590602001909291905050506116f3565b6040518080602001828103825283818151815260200191508051906020019080838360005b83811015610acd578082015181840152602081019050610ab2565b50505050905090810190601f168015610afa5780820380516001836020036101000a031916815260200191505b509250505060405180910390f35b348015610b1457600080fd5b50610b6160048036036040811015610b2b57600080fd5b81019080803573ffffffffffffffffffffffffffffffffffffffff1690602001909291908035906020019092919050505061186e565b005b348015610b6f57600080fd5b50610bd260048036036040811015610b8657600080fd5b81019080803573ffffffffffffffffffffffffffffffffffffffff169060200190929190803573ffffffffffffffffffffffffffffffffffffffff16906020019092919050505061194e565b604051808215151515815260200191505060405180910390f35b6000806000837bffffffffffffffffffffffffffffffffffffffffffffffffffffffff19167bffffffffffffffffffffffffffffffffffffffffffffffffffffffff1916815260200190815260200160002060009054906101000a900460ff169050919050565b60066020528060005260406000206000915090505481565b6040805190810160405280600581526020017f524f53484900000000000000000000000000000000000000000000000000000081525081565b6000610caf826119e2565b1515610cba57600080fd5b6002600083815260200190815260200160002060009054906101000a900473ffffffffffffffffffffffffffffffffffffffff169050919050565b6000610d0082611454565b90508073ffffffffffffffffffffffffffffffffffffffff168373ffffffffffffffffffffffffffffffffffffffff1614151515610d3d57600080fd5b8073ffffffffffffffffffffffffffffffffffffffff163373ffffffffffffffffffffffffffffffffffffffff161480610d7d5750610d7c813361194e565b5b1515610d8857600080fd5b826002600084815260200190815260200160002060006101000a81548173ffffffffffffffffffffffffffffffffffffffff021916908373ffffffffffffffffffffffffffffffffffffffff160217905550818373ffffffffffffffffffffffffffffffffffffffff168273ffffffffffffffffffffffffffffffffffffffff167f8c5be1e5ebec7d5bd14f71427d1e84f3dd0314c0f7b2291e5b200ac8c7c3b92560405160405180910390a4505050565b6000610e4583611454565b90506000610e5283611454565b90503373ffffffffffffffffffffffffffffffffffffffff168273ffffffffffffffffffffffffffffffffffffffff161480610eb957503373ffffffffffffffffffffffffffffffffffffffff168173ffffffffffffffffffffffffffffffffffffffff16145b1515610f53576040517f08c379a000000000000000000000000000000000000000000000000000000000815260040180806020018281038252602b8152602001807f596f752063616e27742065786368616e676520746865205374617220796f752081526020017f646f6e2774206f776e656400000000000000000000000000000000000000000081525060400191505060405180910390fd5b610f5e828286611a54565b610f69818385611a54565b50505050565b6005602052806000526040600020600091509050806000018054600181600116156101000203166002900480601f01602080910402602001604051908101604052809291908181526020018280546001816001161561010002031660029004801561101b5780601f10610ff05761010080835404028352916020019161101b565b820191906000526020600020905b815481529060010190602001808311610ffe57829003601f168201915b505050505090806001018054600181600116156101000203166002900480601f0160208091040260200160405190810160405280929190818152602001828054600181600116156101000203166002900480156110b95780601f1061108e576101008083540402835291602001916110b9565b820191906000526020600020905b81548152906001019060200180831161109c57829003601f168201915b5050505050905082565b6110cd3382611cb9565b15156110d857600080fd5b6110e3838383611a54565b505050565b60006006600083815260200190815260200160002054111515611173576040517f08c379a000000000000000000000000000000000000000000000000000000000815260040180806020018281038252601e8152602001807f54686520537461722073686f756c6420626520757020666f722073616c65000081525060200191505060405180910390fd5b600060066000838152602001908152602001600020549050600061119683611454565b9050813411151561120f576040517f08c379a000000000000000000000000000000000000000000000000000000000815260040180806020018281038252601d8152602001807f596f75206e65656420746f206861766520656e6f75676820457468657200000081525060200191505060405180910390fd5b61121a813385611a54565b600061122582611d4e565b90508073ffffffffffffffffffffffffffffffffffffffff166108fc849081150290604051600060405180830381858888f1935050505015801561126d573d6000803e3d6000fd5b50823411156112c0573373ffffffffffffffffffffffffffffffffffffffff166108fc8434039081150290604051600060405180830381858888f193505050501580156112be573d6000803e3d6000fd5b505b50505050565b3373ffffffffffffffffffffffffffffffffffffffff166112e683611454565b73ffffffffffffffffffffffffffffffffffffffff16141515611397576040517f08c379a00000000000000000000000000000000000000000000000000000000081526004018080602001828103825260278152602001807f596f752063616e27742073616c6520746865205374617220796f7520646f6e2781526020017f74206f776e65640000000000000000000000000000000000000000000000000081525060400191505060405180910390fd5b8060066000848152602001908152602001600020819055505050565b6113cf83838360206040519081016040528060008152506116cb565b505050565b6113dc61222a565b604080519081016040528085815260200184815250905080600560008481526020019081526020016000206000820151816000019080519060200190611423929190612244565b506020820151816001019080519060200190611440929190612244565b5090505061144e3383611d58565b50505050565b6000806001600084815260200190815260200160002060009054906101000a900473ffffffffffffffffffffffffffffffffffffffff169050600073ffffffffffffffffffffffffffffffffffffffff168173ffffffffffffffffffffffffffffffffffffffff16141515156114c957600080fd5b80915050919050565b60008073ffffffffffffffffffffffffffffffffffffffff168273ffffffffffffffffffffffffffffffffffffffff161415151561150f57600080fd5b600360008373ffffffffffffffffffffffffffffffffffffffff1673ffffffffffffffffffffffffffffffffffffffff168152602001908152602001600020549050919050565b6040805190810160405280600581526020017f524f53484900000000000000000000000000000000000000000000000000000081525081565b3373ffffffffffffffffffffffffffffffffffffffff168273ffffffffffffffffffffffffffffffffffffffff16141515156115ca57600080fd5b80600460003373ffffffffffffffffffffffffffffffffffffffff1673ffffffffffffffffffffffffffffffffffffffff16815260200190815260200160002060008473ffffffffffffffffffffffffffffffffffffffff1673ffffffffffffffffffffffffffffffffffffffff16815260200190815260200160002060006101000a81548160ff0219169083151502179055508173ffffffffffffffffffffffffffffffffffffffff163373ffffffffffffffffffffffffffffffffffffffff167f17307eab39ab6107e8899845ad3d59bd9653f200f220920489ca2b5937696c3183604051808215151515815260200191505060405180910390a35050565b6116d68484846110c3565b6116e284848484611ef1565b15156116ed57600080fd5b50505050565b60606116fd61222a565b60056000848152602001908152602001600020604080519081016040529081600082018054600181600116156101000203166002900480601f0160208091040260200160405190810160405280929190818152602001828054600181600116156101000203166002900480156117b45780601f10611789576101008083540402835291602001916117b4565b820191906000526020600020905b81548152906001019060200180831161179757829003601f168201915b50505050508152602001600182018054600181600116156101000203166002900480601f0160208091040260200160405190810160405280929190818152602001828054600181600116156101000203166002900480156118565780601f1061182b57610100808354040283529160200191611856565b820191906000526020600020905b81548152906001019060200180831161183957829003601f168201915b50505050508152505090508060000151915050919050565b3373ffffffffffffffffffffffffffffffffffffffff1661188e82611454565b73ffffffffffffffffffffffffffffffffffffffff1614151561193f576040517f08c379a000000000000000000000000000000000000000000000000000000000815260040180806020018281038252602b8152602001807f596f752063616e2774207472616e7366657220746865205374617220796f752081526020017f646f6e2774206f776e656400000000000000000000000000000000000000000081525060400191505060405180910390fd5b61194a338383611a54565b5050565b6000600460008473ffffffffffffffffffffffffffffffffffffffff1673ffffffffffffffffffffffffffffffffffffffff16815260200190815260200160002060008373ffffffffffffffffffffffffffffffffffffffff1673ffffffffffffffffffffffffffffffffffffffff16815260200190815260200160002060009054906101000a900460ff16905092915050565b6000806001600084815260200190815260200160002060009054906101000a900473ffffffffffffffffffffffffffffffffffffffff169050600073ffffffffffffffffffffffffffffffffffffffff168173ffffffffffffffffffffffffffffffffffffffff161415915050919050565b8273ffffffffffffffffffffffffffffffffffffffff16611a7482611454565b73ffffffffffffffffffffffffffffffffffffffff16141515611a9657600080fd5b600073ffffffffffffffffffffffffffffffffffffffff168273ffffffffffffffffffffffffffffffffffffffff1614151515611ad257600080fd5b611adb81612114565b611b2e6001600360008673ffffffffffffffffffffffffffffffffffffffff1673ffffffffffffffffffffffffffffffffffffffff168152602001908152602001600020546121d490919063ffffffff16565b600360008573ffffffffffffffffffffffffffffffffffffffff1673ffffffffffffffffffffffffffffffffffffffff16815260200190815260200160002081905550611bc46001600360008573ffffffffffffffffffffffffffffffffffffffff1673ffffffffffffffffffffffffffffffffffffffff168152602001908152602001600020546121f690919063ffffffff16565b600360008473ffffffffffffffffffffffffffffffffffffffff1673ffffffffffffffffffffffffffffffffffffffff16815260200190815260200160002081905550816001600083815260200190815260200160002060006101000a81548173ffffffffffffffffffffffffffffffffffffffff021916908373ffffffffffffffffffffffffffffffffffffffff160217905550808273ffffffffffffffffffffffffffffffffffffffff168473ffffffffffffffffffffffffffffffffffffffff167fddf252ad1be2c89b69c2b068fc378daa952ba7f163c4a11628f55a4df523b3ef60405160405180910390a4505050565b600080611cc583611454565b90508073ffffffffffffffffffffffffffffffffffffffff168473ffffffffffffffffffffffffffffffffffffffff161480611d3457508373ffffffffffffffffffffffffffffffffffffffff16611d1c84610ca4565b73ffffffffffffffffffffffffffffffffffffffff16145b80611d455750611d44818561194e565b5b91505092915050565b6000819050919050565b600073ffffffffffffffffffffffffffffffffffffffff168273ffffffffffffffffffffffffffffffffffffffff1614151515611d9457600080fd5b611d9d816119e2565b151515611da957600080fd5b816001600083815260200190815260200160002060006101000a81548173ffffffffffffffffffffffffffffffffffffffff021916908373ffffffffffffffffffffffffffffffffffffffff160217905550611e4e6001600360008573ffffffffffffffffffffffffffffffffffffffff1673ffffffffffffffffffffffffffffffffffffffff168152602001908152602001600020546121f690919063ffffffff16565b600360008473ffffffffffffffffffffffffffffffffffffffff1673ffffffffffffffffffffffffffffffffffffffff16815260200190815260200160002081905550808273ffffffffffffffffffffffffffffffffffffffff16600073ffffffffffffffffffffffffffffffffffffffff167fddf252ad1be2c89b69c2b068fc378daa952ba7f163c4a11628f55a4df523b3ef60405160405180910390a45050565b6000611f128473ffffffffffffffffffffffffffffffffffffffff16612217565b1515611f21576001905061210c565b60008473ffffffffffffffffffffffffffffffffffffffff1663150b7a02338887876040518563ffffffff167c0100000000000000000000000000000000000000000000000000000000028152600401808573ffffffffffffffffffffffffffffffffffffffff1673ffffffffffffffffffffffffffffffffffffffff1681526020018473ffffffffffffffffffffffffffffffffffffffff1673ffffffffffffffffffffffffffffffffffffffff16815260200183815260200180602001828103825283818151815260200191508051906020019080838360005b83811015612018578082015181840152602081019050611ffd565b50505050905090810190601f1680156120455780820380516001836020036101000a031916815260200191505b5095505050505050602060405180830381600087803b15801561206757600080fd5b505af115801561207b573d6000803e3d6000fd5b505050506040513d602081101561209157600080fd5b8101908080519060200190929190505050905063150b7a027c0100000000000000000000000000000000000000000000000000000000027bffffffffffffffffffffffffffffffffffffffffffffffffffffffff1916817bffffffffffffffffffffffffffffffffffffffffffffffffffffffff1916149150505b949350505050565b600073ffffffffffffffffffffffffffffffffffffffff166002600083815260200190815260200160002060009054906101000a900473ffffffffffffffffffffffffffffffffffffffff1673ffffffffffffffffffffffffffffffffffffffff161415156121d15760006002600083815260200190815260200160002060006101000a81548173ffffffffffffffffffffffffffffffffffffffff021916908373ffffffffffffffffffffffffffffffffffffffff1602179055505b50565b60008282111515156121e557600080fd5b600082840390508091505092915050565b600080828401905083811015151561220d57600080fd5b8091505092915050565b600080823b905060008111915050919050565b604080519081016040528060608152602001606081525090565b828054600181600116156101000203166002900490600052602060002090601f016020900481019282601f1061228557805160ff19168380011785556122b3565b828001600101855582156122b3579182015b828111156122b2578251825591602001919060010190612297565b5b5090506122c091906122c4565b5090565b6122e691905b808211156122e25760008160009055506001016122ca565b5090565b9056fea165627a7a72305820327bc2d2d023534b15cf16986a5a7a58722e85661a7232fa8c2a497aa26121c40029",
  "source": "pragma solidity >=0.4.24;\n\n//Importing openzeppelin-solidity ERC-721 implemented Standard\nimport \"../node_modules/openzeppelin-solidity/contracts/token/ERC721/ERC721.sol\";\n\n// StarNotary Contract declaration inheritance the ERC721 openzeppelin implementation\ncontract StarNotary is ERC721 {\n\n    // Implement Task 1 Add a name and symbol properties\n    // name: Is a short name to your token\n    // symbol: Is a short string like 'USD' -> 'American Dollar'\n    string public constant name = \"ROSHI\";\n    string public constant symbol = \"ROSHI\";\n\n    // Star data\n    struct Star {\n        string name;\n        string symbol;\n    }\n    \n\n    // mapping the Star with the Owner Address\n    mapping(uint256 => Star) public tokenIdToStarInfo;\n    // mapping the TokenId and price\n    mapping(uint256 => uint256) public starsForSale;\n\n    \n    // Create Star using the Struct\n    function createStar(string memory _name, string memory _symbol, uint256 _tokenId) public { // Passing the name, symbol and tokenId as a parameters\n        Star memory newStar = Star(_name, _symbol); // Star is an struct so we are creating a new Star\n        tokenIdToStarInfo[_tokenId] = newStar; // Creating in memory the Star -> tokenId mapping\n        _mint(msg.sender, _tokenId); // _mint assign the the star with _tokenId to the sender address (ownership)\n    }\n\n    // Putting an Star for sale (Adding the star tokenid into the mapping starsForSale, first verify that the sender is the owner)\n    function putStarUpForSale(uint256 _tokenId, uint256 _price) public {\n        require(ownerOf(_tokenId) == msg.sender, \"You can't sale the Star you don't owned\");\n        starsForSale[_tokenId] = _price;\n    }\n\n\n    // Function that allows you to convert an address into a payable address\n    function _make_payable(address x) internal pure returns (address payable) {\n        return address(uint160(x));\n    }\n\n    function buyStar(uint256 _tokenId) public  payable {\n        require(starsForSale[_tokenId] > 0, \"The Star should be up for sale\");\n        uint256 starCost = starsForSale[_tokenId];\n        address ownerAddress = ownerOf(_tokenId);\n        require(msg.value > starCost, \"You need to have enough Ether\");\n        _transferFrom(ownerAddress, msg.sender, _tokenId); // We can't use _addTokenTo or_removeTokenFrom functions, now we have to use _transferFrom\n        address payable ownerAddressPayable = _make_payable(ownerAddress); // We need to make this conversion to be able to use transfer() function to transfer ethers\n        ownerAddressPayable.transfer(starCost);\n        if(msg.value > starCost) {\n            msg.sender.transfer(msg.value - starCost);\n        }\n    }\n\n    // Implement Task 1 lookUptokenIdToStarInfo\n    function lookUptokenIdToStarInfo (uint _tokenId) public view returns (string memory) {\n        //1. You should return the Star saved in tokenIdToStarInfo mapping\n        Star memory star = tokenIdToStarInfo[_tokenId];\n        return star.name;\n    }\n\n    // Implement Task 1 Exchange Stars function\n    function exchangeStars(uint256 _tokenId1, uint256 _tokenId2) public {\n        //1. Passing to star tokenId you will need to check if the owner of _tokenId1 or _tokenId2 is the sender\n        //2. You don't have to check for the price of the token (star)\n        //3. Get the owner of the two tokens (ownerOf(_tokenId1), ownerOf(_tokenId1)\n        //4. Use _transferFrom function to exchange the tokens.\n\n        address user1 = ownerOf(_tokenId1);\n        address user2 = ownerOf(_tokenId2);\n\n        require((user1 == msg.sender || user2 == msg.sender), \"You can't exchange the Star you don't owned\");\n        \n        _transferFrom(user1, user2, _tokenId1);\n        _transferFrom(user2, user1, _tokenId2);\n\n    }\n\n    // Implement Task 1 Transfer Stars\n    function transferStar(address _to1, uint256 _tokenId) public {\n        //1. Check if the sender is the ownerOf(_tokenId)\n        //2. Use the transferFrom(from, to, tokenId); function to transfer the Star\n\n        require(ownerOf(_tokenId) == msg.sender, \"You can't transfer the Star you don't owned\");\n\n        _transferFrom(msg.sender, _to1, _tokenId);\n    }\n\n}",
  "sourcePath": "/Users/roshi/Desktop/Project_5_Starter_Code/contracts/StarNotary.sol",
  "compiler": {
    "name": "solc",
    "version": "0.5.0+commit.1d4f565a.Emscripten.clang"
  },
  "schemaVersion": "3.0.1",
  "updatedAt": "2019-01-29T17:08:17.743Z",
  "devdoc": {
    "methods": {
      "approve(address,uint256)": {
        "details": "Approves another address to transfer the given token ID The zero address indicates there is no approved address. There can only be one approved address per token at a given time. Can only be called by the token owner or an approved operator.",
        "params": {
          "to": "address to be approved for the given token ID",
          "tokenId": "uint256 ID of the token to be approved"
        }
      },
      "balanceOf(address)": {
        "details": "Gets the balance of the specified address",
        "params": {
          "owner": "address to query the balance of"
        },
        "return": "uint256 representing the amount owned by the passed address"
      },
      "getApproved(uint256)": {
        "details": "Gets the approved address for a token ID, or zero if no address set Reverts if the token ID does not exist.",
        "params": {
          "tokenId": "uint256 ID of the token to query the approval of"
        },
        "return": "address currently approved for the given token ID"
      },
      "isApprovedForAll(address,address)": {
        "details": "Tells whether an operator is approved by a given owner",
        "params": {
          "operator": "operator address which you want to query the approval of",
          "owner": "owner address which you want to query the approval of"
        },
        "return": "bool whether the given operator is approved by the given owner"
      },
      "ownerOf(uint256)": {
        "details": "Gets the owner of the specified token ID",
        "params": {
          "tokenId": "uint256 ID of the token to query the owner of"
        },
        "return": "owner address currently marked as the owner of the given token ID"
      },
      "safeTransferFrom(address,address,uint256)": {
        "details": "Safely transfers the ownership of a given token ID to another address If the target address is a contract, it must implement `onERC721Received`, which is called upon a safe transfer, and return the magic value `bytes4(keccak256(\"onERC721Received(address,address,uint256,bytes)\"))`; otherwise, the transfer is reverted.     * Requires the msg sender to be the owner, approved, or operator",
        "params": {
          "from": "current owner of the token",
          "to": "address to receive the ownership of the given token ID",
          "tokenId": "uint256 ID of the token to be transferred"
        }
      },
      "safeTransferFrom(address,address,uint256,bytes)": {
        "details": "Safely transfers the ownership of a given token ID to another address If the target address is a contract, it must implement `onERC721Received`, which is called upon a safe transfer, and return the magic value `bytes4(keccak256(\"onERC721Received(address,address,uint256,bytes)\"))`; otherwise, the transfer is reverted. Requires the msg sender to be the owner, approved, or operator",
        "params": {
          "_data": "bytes data to send along with a safe transfer check",
          "from": "current owner of the token",
          "to": "address to receive the ownership of the given token ID",
          "tokenId": "uint256 ID of the token to be transferred"
        }
      },
      "setApprovalForAll(address,bool)": {
        "details": "Sets or unsets the approval of a given operator An operator is allowed to transfer all tokens of the sender on their behalf",
        "params": {
          "approved": "representing the status of the approval to be set",
          "to": "operator address to set the approval"
        }
      },
      "supportsInterface(bytes4)": {
        "details": "implement supportsInterface(bytes4) using a lookup table"
      },
      "transferFrom(address,address,uint256)": {
        "details": "Transfers the ownership of a given token ID to another address Usage of this method is discouraged, use `safeTransferFrom` whenever possible Requires the msg sender to be the owner, approved, or operator",
        "params": {
          "from": "current owner of the token",
          "to": "address to receive the ownership of the given token ID",
          "tokenId": "uint256 ID of the token to be transferred"
        }
      }
    }
  },
  "userdoc": {
    "methods": {}
  }
}